:020000040800F2
:100000000028002015070008A5060008AB06000818
:10001000B1060008B7060008BD0600080000000091
:10002000000000000000000000000000C3060008FF
:10003000CF06000800000000DB060008E706000805
:100040005D0700085D0700085D0700085D07000800
:100050005D0700085D0700085D0700085D070008F0
:100060005D0700085D0700085D0700085D070008E0
:100070005D0700085D0700085D0700085D070008D0
:100080005D0700085D0700085D0700085D070008C0
:100090005D0700085D0700085D0700085D070008B0
:1000A0005D0700085D0700085D0700085D070008A0
:1000B0005D0700085D070008000000005D070008FC
:1000C0005D07000800000000000000005D07000858
:1000D000000000005D070008F506000800000000B1
:1000E0005D0700085D0700085D07000800000000CC
:1000F0000000000000000000000000000000000000
:0C01000000000000000000005FF808F1A3
:10010C0010B5054C237833B9044B13B10448AFF345
:10011C0000800123237010BD0C00002000000000A3
:10012C00382A000808B5034B1BB103490348AFF349
:10013C00008008BD0000000010000020382A0008D4
:10014C0080B582B000AF78604FF47A7000F064FB39
:10015C000821044800F0D4FE4FF47A7000F05CFBE8
:10016C00F2E700BF000C014080B582B000AF00F098
:10017C00F1FA00F03DF800F025F900F075F800F008
:10018C00F7F80021164801F03FFB00237B60142197
:10019C00022000F055F94FF47A7000F03DFB142169
:1001AC00012000F04DF94FF47A730C220D490E48E2
:1001BC0001F07EFF0346002BF5D1012208210B48EC
:1001CC0000F086FE4FF47A7000F026FB0022082126
:1001DC00064800F07DFE4FF47A7000F01DFBE2E75C
:1001EC0034000020280000207C000020000C01407E
:1001FC0080B590B000AF07F11803282200211846F3
:10020C0002F00CFC3B1D00221A605A609A60DA6006
:10021C001A610223BB610123BB621023FB62002322
:10022C007B6307F11803184600F084FE0346002B8D
:10023C0001D000F055F90F237B600023BB60002335
:10024C00FB6000233B6100237B613B1D00211846B2
:10025C0001F0F0F80346002B01D000F041F900BF8B
:10026C004037BD4680BD000080B592B000AF07F1AD
:10027C00400300221A605A6007F1240300221A601E
:10028C005A609A60DA601A615A619A613B1D2022A9
:10029C000021184602F0C2FB334B344A1A60324B31
:1002AC0047225A60304B00229A602F4B4FF6FF7258
:1002BC00DA602D4B00221A612B4B00225A612A4B1B
:1002CC0000229A61284801F04FFA0346002B01D016
:1002DC0000F006F900233B6400237B6407F1400324
:1002EC001946214801F0EEFD0346002B01D000F029
:1002FC00F7F860237B620023BB620023FB620023C0
:10030C003B6300237B630023BB630023FB6307F188
:10031C00240300221946144801F012FB0346002B5B
:10032C0001D000F0DDF800237B600023BB600023CC
:10033C00FB6000233B6100237B614FF40053BB61E6
:10034C0000233B623B1D1946074801F013FE034690
:10035C00002B01D000F0C4F8034800F017F900BFDF
:10036C004837BD4680BD00BF34000020002C014042
:10037C0080B500AF114B124A1A60104B4FF4165255
:10038C005A600E4B00229A600C4B0022DA600B4B29
:10039C0000221A61094B0C225A61084B00229A6107
:1003AC00064B0022DA61054801F035FE0346002BAE
:1003BC0001D000F095F800BF80BD00BF7C0000208C
:1003CC000044004080B586B000AF07F1080300225E
:1003DC001A605A609A60DA60174B9B69164A43F0B0
:1003EC0004039361144B9B6903F004037B607B68EB
:1003FC00114B9B69104A43F0080393610E4B9B69A8
:10040C0003F008033B603B6800220F210B4800F00F
:10041C005FFD0F23BB600123FB6000233B610223C4
:10042C007B6107F108031946044800F0D7FB00BFB5
:10043C001837BD4680BD00BF00100240000C0140C3
:10044C0080B584B000AF786039603B68002B0ADC63
:10045C00002201211F4800F03BFD002202211D4813
:10046C0000F036FD31E03B6840F2123202FB03F340
:10047C00194A82FB03125211DB17D31AFB60FB687B
:10048C00C3F544730233FB607B68012B0AD1002255
:10049C000121104800F01CFD012202210D4800F042
:1004AC0017FD0CE07B68022B09D1012201210948C0
:1004BC0000F00EFD00220221064800F009FDFB6849
:1004CC00FA2202FB03F2054B5A6300BF1037BD46FC
:1004DC0080BD00BF000C01401F85EB51002C01407A
:1004EC0080B400AF72B600BFFEE7000080B485B0E8
:1004FC0000AF154B9B69144A43F001039361124BF7
:10050C009B6903F00103BB60BB680F4BDB690E4AB0
:10051C0043F08053D3610C4BDB6903F080537B6059
:10052C007B680A4B5B68FB60FB6823F0E063FB6055
:10053C00FB6843F08063FB60044AFB68536000BFB8
:10054C001437BD4680BC70470010024000000140CB
:10055C0080B485B000AF78607B681B68094A934211
:10056C000BD1094B9B69084A43F400639361064B1A
:10057C009B6903F40063FB60FB6800BF1437BD4646
:10058C0080BC7047002C01400010024080B588B040
:10059C0000AF786007F1100300221A605A609A606D
:1005AC00DA607B681B68104A934218D10F4B9B6929
:1005BC000E4A43F0040393610C4B9B6903F0040354
:1005CC00FB60FB684FF480733B6102237B61022369
:1005DC00FB6107F110031946054800F0FFFA00BF54
:1005EC002037BD4680BD00BF002C014000100240EA
:1005FC000008014080B588B000AF786007F11003A7
:10060C0000221A605A609A60DA607B681B681F4A85
:10061C00934237D11E4BDB691D4A43F40033D3613F
:10062C001B4BDB6903F40033FB60FB68184B9B69C5
:10063C00174A43F004039361154B9B6903F00403C1
:10064C00BB60BB6804233B6102237B610323FB611A
:10065C0007F1100319460F4800F0C0FA08233B615C
:10066C0000237B610023BB6107F110031946094885
:10067C0000F0B4FA00220021262000F0C8F9262050
:10068C0000F0E1F900BF2037BD4680BD00440040BA
:10069C00001002400008014080B400AFFEE780B4B7
:1006AC0000AFFEE780B400AFFEE780B400AFFEE71A
:1006BC0080B400AFFEE780B400AF00BFBD4680BC85
:1006CC00704780B400AF00BFBD4680BC704780B49B
:1006DC0000AF00BFBD4680BC704780B500AF00F0D6
:1006EC007FF800BF80BD000080B500AF024801F06C
:1006FC0081FD00BF80BD00BF7C00002080B400AF36
:10070C0000BFBD4680BC70470C480D490D4A002304
:10071C0002E0D458C4500433C4188C42F9D30A4AAA
:10072C000A4C002301E013600432A242FBD3FFF712
:10073C00E5FF02F04FF9FFF717FD704700000020AE
:10074C000C000020802A00080C000020C4000020AF
:10075C00FEE7000080B500AF084B1B68074A43F06A
:10076C0010031360032000F047F9002000F008F894
:10077C00FFF7BCFE0023184680BD00BF00200240DE
:10078C0080B582B000AF7860124B1A68124B1B78A0
:10079C0019464FF47A73B3FBF1F3B2FBF3F318463B
:1007AC0000F05FF90346002B01D001230EE07B68BB
:1007BC000F2B0AD8002279684FF0FF3000F027F990
:1007CC00064A7B681360002300E0012318460837B3
:1007DC00BD4680BD00000020080000200400002061
:1007EC0080B400AF054B1B781A46054B1B681344AD
:1007FC00034A136000BFBD4680BC70470800002050
:10080C00C000002080B400AF024B1B681846BD46E8
:10081C0080BC7047C000002080B584B000AF786009
:10082C00FFF7F0FFB8607B68FB60FB68B3F1FF3F3C
:10083C0005D00A4B1B781A46FB681344FB6000BFBB
:10084C00FFF7E0FF0246BB68D31AFA689A42F7D862
:10085C0000BF00BF1037BD4680BD00BF08000020A0
:10086C0080B485B000AF78607B6803F00703FB6051
:10087C000C4BDB68BB60BA684FF6FF031340BB60E0
:10088C00FB681A02BB68134343F0BF6343F40033A5
:10089C00BB60044ABB68D36000BF1437BD4680BC44
:1008AC00704700BF00ED00E080B400AF044BDB6884
:1008BC001B0A03F007031846BD4680BC704700BFF7
:1008CC0000ED00E080B483B000AF0346FB7197F9F4
:1008DC000730002B0BDBFB7903F01F02064997F95D
:1008EC0007305B09012000FA02F241F8232000BF17
:1008FC000C37BD4680BC704700E100E080B483B08B
:10090C0000AF03463960FB7197F90730002B0ADB07
:10091C003B68DAB20C4997F907301201D2B20B449A
:10092C0083F800230AE03B68DAB20849FB7903F04C
:10093C000F03043B1201D2B20B441A7600BF0C37E2
:10094C00BD4680BC704700BF00E100E000ED00E058
:10095C0080B489B000AFF860B9607A60FB6803F0CE
:10096C000703FB61FB69C3F10703042B28BF0423B6
:10097C00BB61FB690433062B02D9FB69033B00E026
:10098C0000237B614FF0FF32BB6902FA03F3DA43B9
:10099C00BB681A407B699A404FF0FF317B6901FAC2
:1009AC0003F3D9437B680B40134318462437BD46E9
:1009BC0080BC704780B582B000AF78607B68013B2B
:1009CC00B3F1807F01D301230FE00A4A7B68013B1E
:1009DC0053600F214FF0FF30FFF790FF054B0022C3
:1009EC009A60044B07221A60002318460837BD464C
:1009FC0080BD00BF10E000E080B582B000AF786031
:100A0C007868FFF72DFF00BF0837BD4680BD80B565
:100A1C0086B000AF0346B9607A60FB7300237B613C
:100A2C00FFF742FF78617A68B9687869FFF790FF41
:100A3C00024697F90F3011461846FFF75FFF00BFCB
:100A4C001837BD4680BD80B582B000AF0346FB7140
:100A5C0097F907301846FFF735FF00BF0837BD463A
:100A6C0080BD80B582B000AF78607868FFF7A2FFD8
:100A7C00034618460837BD4680BD80B485B000AF2C
:100A8C0078600023FB737B6893F82130022B08D02D
:100A9C007B6804229A637B68002283F82020012360
:100AAC0020E07B681B681A687B681B6822F00E02CA
:100ABC001A607B681B681A687B681B6822F001024D
:100ACC001A607B681A6C7B68DB6B012101FA02F2FD
:100ADC005A607B68012283F821207B68002283F80E
:100AEC002020FB7B18461437BD4680BC70470000A5
:100AFC0080B584B000AF78600023FB737B6893F8FB
:100B0C002130022B05D07B6804229A630123FB73EE
:100B1C0051E07B681B681A687B681B6822F00E0228
:100B2C001A607B681B681A687B681B6822F00102DC
:100B3C001A607B681B68224A934229D07B681B6829
:100B4C00204A934222D07B681B681F4A93421AD0DA
:100B5C007B681B681D4A934212D07B681B681C4A39
:100B6C0093420AD07B681B681A4A934202D14FF415
:100B7C0080130EE04FF080730BE04FF4803308E0ED
:100B8C004FF4805305E04FF4807302E0102300E033
:100B9C000123114A53607B68012283F821207B6872
:100BAC00002283F820207B685B6B002B03D07B68D2
:100BBC005B6B78689847FB7B18461037BD4680BD49
:100BCC00080002401C000240300002404400024079
:100BDC00580002406C0002400000024080B48BB010
:100BEC0000AF7860396000237B6200233B6248E1F0
:100BFC0001227B6A02FA03F3FB613B681B68FA690A
:100C0C001340BB61BA69FB699A4240F037813B687B
:100C1C005B68A34A93425ED0A14A934275D8A14A1D
:100C2C00934258D09F4A93426FD89F4A934252D0D6
:100C3C009D4A934269D89D4A93424CD09B4A934219
:100C4C0063D89B4A934246D0994A93425DD8122B63
:100C5C002AD8122B59D801A252F823F0E30C000821
:100C6C00BD0C0008CF0C0008110D0008170D000872
:100C7C00170D0008170D0008170D0008170D0008B8
:100C8C00170D0008170D0008170D0008170D0008A8
:100C9C00170D0008170D0008170D0008170D000898
:100CAC00C50C0008D90C0008824A934213D02CE0E2
:100CBC003B68DB683B6229E03B68DB6804333B62E2
:100CCC0024E03B68DB6808333B621FE03B68DB6871
:100CDC000C333B621AE03B689B68002B02D1042367
:100CEC003B6213E03B689B68012B05D108233B62F8
:100CFC007B68FA691A6109E008233B627B68FA6930
:100D0C005A6103E000233B6200E000BFBB69FF2B8C
:100D1C0001D87B6801E07B6804337B61BB69FF2BE6
:100D2C0002D87B6A9B0002E07B6A083B9B003B611C
:100D3C007B691A680F213B6901FA03F3DB431A4004
:100D4C00396A3B6901FA03F31A437B691A603B6801
:100D5C005B6803F08053002B00F09080564B9B692E
:100D6C00554A43F001039361534B9B6903F0010314
:100D7C00BB60BB68514A7B6A9B08023352F8233034
:100D8C00FB607B6A03F003039B000F2202FA03F360
:100D9C00DB43FA681340FB607B68494A93420DD0F1
:100DAC007B68484A934207D07B68474A934201D1FB
:100DBC00022304E0032302E0012300E000237A6A0B
:100DCC0002F0030292009340FA681343FB603B4924
:100DDC007B6A9B080233FA6841F823203B685B6806
:100DEC0003F48033002B06D0384B1A683749BB69A3
:100DFC0013430B6006E0354B1A68BB69DB43334980
:100E0C0013400B603B685B6803F40033002B06D087
:100E1C002E4B5A682D49BB6913434B6006E02B4B94
:100E2C005A68BB69DB43294913404B603B685B68DC
:100E3C0003F48013002B06D0244B9A682349BB691A
:100E4C0013438B6006E0214B9A68BB69DB431F4957
:100E5C0013408B603B685B6803F40013002B06D0D7
:100E6C001A4BDA681949BB691343CB6006E0174B80
:100E7C00DA68BB69DB4315491340CB607B6A0133ED
:100E8C007B623B681A687B6A22FA03F3002B7FF4BF
:100E9C00AFAE00BF00BF2C37BD4680BC704700BF53
:100EAC000000321000003110000022100000211050
:100EBC000000121000001110001002400000014050
:100ECC0000080140000C01400010014000040140EA
:100EDC0080B483B000AF78600B467B8013467B7088
:100EEC007B78002B03D07A887B681A6103E07B88BF
:100EFC001A047B681A6100BF0C37BD4680BC704772
:100F0C0080B485B000AF78600B467B807B68DB6873
:100F1C00FB607A88FB6813401A04FB68D9437B8812
:100F2C000B401A437B681A6100BF1437BD4680BC66
:100F3C007047000080B586B000AF78607B68002BEE
:100F4C0001D101236CE27B681B6803F00103002BC9
:100F5C0000F08780924B5B6803F00C03042B0CD0E1
:100F6C008F4B5B6803F00C03082B12D18C4B5B6826
:100F7C0003F48033B3F5803F0BD1894B1B6803F42A
:100F8C000033002B6CD07B685B68002B68D101238D
:100F9C0046E27B685B68B3F5803F06D1804B1B68EB
:100FAC007F4A43F4803313602EE07B685B68002B30
:100FBC000CD17B4B1B687A4A23F480331360784B3B
:100FCC001B68774A23F4802313601DE07B685B6801
:100FDC00B3F5A02F0CD1724B1B68714A43F48023DC
:100FEC0013606F4B1B686E4A43F4803313600BE045
:100FFC006B4B1B686A4A23F480331360684B1B6885
:10100C00674A23F4802313607B685B68002B13D042
:10101C00FFF7F8FB386108E0FFF7F4FB02463B6989
:10102C00D31A642B01D90323FAE15D4B1B6803F43B
:10103C000033002BF0D014E0FFF7E4FB386108E03C
:10104C00FFF7E0FB02463B69D31A642B01D903235B
:10105C00E6E1534B1B6803F40033002BF0D100E0A6
:10106C0000BF7B681B6803F00203002B63D04C4B62
:10107C005B6803F00C03002B0BD0494B5B6803F04F
:10108C000C03082B1CD1464B5B6803F48033002BFC
:10109C0016D1434B1B6803F00203002B05D07B6871
:1010AC001B69012B01D00123BAE13D4B1B6823F0D6
:1010BC00F8027B685B69DB00394913430B603AE04B
:1010CC007B681B69002B20D0364B01221A60FFF77E
:1010DC0099FB386108E0FFF795FB02463B69D31A90
:1010EC00022B01D903239BE12D4B1B6803F0020358
:1010FC00002BF0D02A4B1B6823F0F8027B685B694D
:10110C00DB00274913430B6015E0264B00221A60C5
:10111C00FFF778FB386108E0FFF774FB02463B6988
:10112C00D31A022B01D903237AE11D4B1B6803F060
:10113C000203002BF0D17B681B6803F00803002B23
:10114C003AD07B689B69002B19D0174B01221A608F
:10115C00FFF758FB386108E0FFF754FB02463B6988
:10116C00D31A022B01D903235AE10D4B5B6A03F00E
:10117C000203002BF0D0012000F0D8FA1CE00A4B3F
:10118C0000221A60FFF73EFB38610FE0FFF73AFBD5
:10119C0002463B69D31A022B08D9032340E100BF56
:1011AC000010024000004242800442429E4B5B6AA7
:1011BC0003F00203002BE9D17B681B6803F00403E6
:1011CC00002B00F0A6800023FB75974BDB6903F026
:1011DC008053002B0DD1944BDB69934A43F0805321
:1011EC00D361914BDB6903F08053BB60BB68012377
:1011FC00FB758E4B1B6803F48073002B18D18B4B43
:10120C001B688A4A43F480731360FFF7FBFA38615A
:10121C0008E0FFF7F7FA02463B69D31A642B01D9B1
:10122C000323FDE0814B1B6803F48073002BF0D08B
:10123C007B68DB68012B06D17B4B1B6A7A4A43F037
:10124C00010313622DE07B68DB68002B0CD1764B1D
:10125C001B6A754A23F001031362734B1B6A724AB3
:10126C0023F0040313621CE07B68DB68052B0CD1B4
:10127C006D4B1B6A6C4A43F0040313626A4B1B6A86
:10128C00694A43F0010313620BE0674B1B6A664A21
:10129C0023F001031362644B1B6A634A23F00403BB
:1012AC0013627B68DB68002B15D0FFF7ABFA386153
:1012BC000AE0FFF7A7FA02463B69D31A41F28832DB
:1012CC00934201D90323ABE0574B1B6A03F0020393
:1012DC00002BEED014E0FFF795FA38610AE0FFF727
:1012EC0091FA02463B69D31A41F28832934201D9F2
:1012FC00032395E04C4B1B6A03F00203002BEED149
:10130C00FB7D012B05D1484BDB69474A23F0805309
:10131C00D3617B68DB69002B00F08180424B5B68FA
:10132C0003F00C03082B61D07B68DB69022B46D1E0
:10133C003F4B00221A60FFF765FA386108E0FFF7AF
:10134C0061FA02463B69D31A022B01D9032367E0E9
:10135C00354B1B6803F00073002BF0D17B681B6AC4
:10136C00B3F5803F08D1304B5B6823F400327B68C7
:10137C009B682D4913434B602B4B5B6823F4741211
:10138C007B68196A7B685B6A0B43274913434B6084
:10139C00274B01221A60FFF735FA386108E0FFF796
:1013AC0031FA02463B69D31A022B01D9032337E0E9
:1013BC001D4B1B6803F00073002BF0D02FE01C4B6F
:1013CC0000221A60FFF71EFA386108E0FFF71AFADC
:1013DC0002463B69D31A022B01D9032320E0124B9E
:1013EC001B6803F00073002BF0D118E07B68DB69FD
:1013FC00012B01D1012313E00B4B5B68FB60FB68F5
:10140C0003F480327B681B6A9A4206D1FB6803F4B2
:10141C0070127B685B6A9A4201D0012300E00023C2
:10142C0018461837BD4680BD0010024000700040C1
:10143C006000424280B584B000AF786039607B6850
:10144C00002B01D10123D0E06A4B1B6803F007038A
:10145C003A689A4210D9674B1B6823F0070265491A
:10146C003B6813430B60634B1B6803F007033A683C
:10147C009A4201D00123B8E07B681B6803F0020399
:10148C00002B20D07B681B6803F00403002B05D0D5
:10149C00594B5B68584A43F4E06353607B681B68A4
:1014AC0003F00803002B05D0534B5B68524A43F4FE
:1014BC0060535360504B5B6823F0F0027B689B6871
:1014CC004D4913434B607B681B6803F00103002BF1
:1014DC0040D07B685B68012B07D1474B1B6803F43A
:1014EC000033002B15D101237FE07B685B68022B56
:1014FC0007D1414B1B6803F00073002B09D101236A
:10150C0073E03D4B1B6803F00203002B01D1012358
:10151C006BE0394B5B6823F003027B685B683649F0
:10152C0013434B60FFF76EF9F8600AE0FFF76AF9B6
:10153C000246FB68D31A41F28832934201D9032345
:10154C0053E02D4B5B6803F00C027B685B689B00DF
:10155C009A42EBD1274B1B6803F007033A689A4277
:10156C0010D2244B1B6823F0070222493B6813431B
:10157C000B60204B1B6803F007033A689A4201D0BA
:10158C00012332E07B681B6803F00403002B08D0B6
:10159C00194B5B6823F4E0627B68DB6816491343E4
:1015AC004B607B681B6803F00803002B09D0124BBF
:1015BC005B6823F460527B681B69DB000E491343A4
:1015CC004B6000F021F802460B4B5B681B0903F0E3
:1015DC000F030A49CB5C22FA03F3094A1360094B47
:1015EC001B681846FFF7CCF8002318461037BD4689
:1015FC0080BD00BF0020024000100240602A00089D
:10160C00000000200400002090B48AB000AF2A4BE8
:10161C003C1D0FCB84E80F0040F201233B800023DC
:10162C00FB610023BB6100237B6200237B610023F1
:10163C003B62224B5B68FB61FB6903F00C03042BE0
:10164C0002D0082B03D02DE01D4B3B622DE0FB6933
:10165C009B0C03F00F0307F12802134413F8243CEE
:10166C007B61FB6903F48033002B13D0134B5B6855
:10167C005B0C03F0010307F12802134413F8283C18
:10168C00BB617B690E4A02FB03F2BB69B2FBF3F34D
:10169C007B6204E07B690B4A02FB03F37B627B6A8F
:1016AC003B6202E0064B3B6200BF3B6A18462837A0
:1016BC00BD4690BC704700BF502A00080010024085
:1016CC0000127A0000093D0080B400AF024B1B6889
:1016DC001846BD4680BC70470000002080B500AFA6
:1016EC00FFF7F2FF0246054B5B681B0A03F007038A
:1016FC000349CB5C22FA03F3184680BD001002406C
:10170C00702A000880B500AFFFF7DEFF0246054BDC
:10171C005B68DB0A03F007030349CB5C22FA03F393
:10172C00184680BD00100240702A000880B485B0B5
:10173C0000AF78600A4B1B680A4AA2FB03235B0AC2
:10174C007A6802FB03F3FB6000BFFB685A1EFA6069
:10175C00002BF9D100BF00BF1437BD4680BC7047C9
:10176C0000000020D34D621080B582B000AF7860CD
:10177C007B68002B01D1012341E07B6893F83D305D
:10178C00DBB2002B06D17B68002283F83C20786802
:10179C00FEF7DEFE7B68022283F83D207B681A6828
:1017AC007B6804331946104600F088F97B680122E7
:1017BC0083F846207B68012283F83E207B68012257
:1017CC0083F83F207B68012283F840207B6801224C
:1017DC0083F841207B68012283F842207B68012238
:1017EC0083F843207B68012283F844207B68012224
:1017FC0083F845207B68012283F83D20002318469E
:10180C000837BD4680BD000080B584B000AF78605D
:10181C0039603B68002B09D17B6893F83E30DBB212
:10182C00012B14BF01230023DBB222E03B68042B05
:10183C0009D17B6893F83F30DBB2012B14BF012335
:10184C000023DBB215E03B68082B09D17B6893F8C9
:10185C004030DBB2012B14BF01230023DBB208E0C4
:10186C007B6893F84130DBB2012B14BF01230023BA
:10187C00DBB2002B01D0012359E03B68002B04D1D3
:10188C007B68022283F83E2013E03B68042B04D1D2
:10189C007B68022283F83F200BE03B68082B04D1C5
:1018AC007B68022283F8402003E07B68022283F8E5
:1018BC0041207B681B6801223968184600F0DEFA6B
:1018CC007B681B681C4A934207D17B681B685A6C67
:1018DC007B681B6842F400425A647B681B68164A9A
:1018EC00934209D07B681B68B3F1804F04D07B68AE
:1018FC001B68124A934211D17B681B689B6803F0EA
:10190C000703FB60FB68062B10D07B681B681A680A
:10191C007B681B6842F001021A6007E07B681B6859
:10192C001A687B681B6842F001021A600023184693
:10193C001037BD4680BD00BF002C014000040040A4
:10194C0080B584B000AFF860B9607A60FB6893F83A
:10195C003C30012B01D10223ACE0FB68012283F85F
:10196C003C207B680C2B00F29F8001A252F823F0E4
:10197C00B1190008B51A0008B51A0008B51A000804
:10198C00F1190008B51A0008B51A0008B51A0008B4
:10199C00331A0008B51A0008B51A0008B51A000861
:1019AC00731A0008FB681B68B968184600F0DEF86B
:1019BC00FB681B689A69FB681B6842F008029A6115
:1019CC00FB681B689A69FB681B6822F004029A6129
:1019DC00FB681B689969BB681A69FB681B680A433A
:1019EC009A6162E0FB681B68B968184600F024F93C
:1019FC00FB681B689A69FB681B6842F400629A6179
:101A0C00FB681B689A69FB681B6822F480629A6108
:101A1C00FB681B689969BB681B691A02FB681B6829
:101A2C000A439A6141E0FB681B68B968184600F0EC
:101A3C006DF9FB681B68DA69FB681B6842F00802E9
:101A4C00DA61FB681B68DA69FB681B6822F0040228
:101A5C00DA61FB681B68D969BB681A69FB681B688B
:101A6C000A43DA6121E0FB681B68B968184600F08C
:101A7C00B7F9FB681B68DA69FB681B6842F4006203
:101A8C00DA61FB681B68DA69FB681B6822F4806208
:101A9C00DA61FB681B68D969BB681B691A02FB68B1
:101AAC001B680A43DA6100E000BFFB68002283F880
:101ABC003C20002318461037BD4680BD80B485B04D
:101ACC0000AF786039607B681B68FB607B68254AD7
:101ADC00934207D07B68B3F1804F03D07B68224AD6
:101AEC00934208D1FB6823F07003FB603B685B6892
:101AFC00FA681343FB607B681A4A934207D07B68F1
:101B0C00B3F1804F03D07B68174A934208D1FB682E
:101B1C0023F44073FB603B68DB68FA681343FB609B
:101B2C00FB6823F080023B685B691343FB607B68B6
:101B3C00FA681A603B689A687B68DA623B681A68D4
:101B4C007B689A627B68074A934203D13B681A69A7
:101B5C007B681A637B6801225A6100BF1437BD464B
:101B6C0080BC7047002C01400004004080B487B05A
:101B7C0000AF786039607B681B6A23F001027B68D8
:101B8C001A627B681B6A7B617B685B683B617B6864
:101B9C009B69FB60FB6823F07003FB60FB6823F020
:101BAC000303FB603B681B68FA681343FB607B69AB
:101BBC0023F002037B613B689B687A6913437B616A
:101BCC007B681C4A93420CD17B6923F008037B6130
:101BDC003B68DB687A6913437B617B6923F0040300
:101BEC007B617B68134A934211D13B6923F4807368
:101BFC003B613B6923F400733B613B685B693A6969
:101C0C0013433B613B689B693A6913433B617B68B7
:101C1C003A695A607B68FA689A613B685A687B68D3
:101C2C005A637B687A691A6200BF1C37BD4680BC58
:101C3C00704700BF002C014080B487B000AF7860C3
:101C4C0039607B681B6A23F010027B681A627B6820
:101C5C001B6A7B617B685B683B617B689B69FB6093
:101C6C00FB6823F4E043FB60FB6823F44073FB60E8
:101C7C003B681B681B02FA681343FB607B6923F00B
:101C8C0020037B613B689B681B017A6913437B6172
:101C9C007B681D4A93420DD17B6923F080037B61E5
:101CAC003B68DB681B017A6913437B617B6923F01A
:101CBC0040037B617B68144A934213D13B6923F444
:101CCC0080633B613B6923F400633B613B685B6968
:101CDC009B003A6913433B613B689B699B003A69E3
:101CEC0013433B617B683A695A607B68FA689A6176
:101CFC003B685A687B689A637B687A691A6200BF92
:101D0C001C37BD4680BC7047002C014080B487B0A6
:101D1C0000AF786039607B681B6A23F480727B6843
:101D2C001A627B681B6A7B617B685B683B617B68C2
:101D3C00DB69FB60FB6823F07003FB60FB6823F03E
:101D4C000303FB603B681B68FA681343FB607B6909
:101D5C0023F400737B613B689B681B027A69134315
:101D6C007B617B681D4A93420DD17B6923F4006330
:101D7C007B613B68DB681B027A6913437B617B697F
:101D8C0023F480637B617B68144A934213D13B69D3
:101D9C0023F480533B613B6923F400533B613B6864
:101DAC005B691B013A6913433B613B689B691B01EF
:101DBC003A6913433B617B683A695A607B68FA68FD
:101DCC00DA613B685A687B68DA637B687A691A6205
:101DDC0000BF1C37BD4680BC704700BF002C0140C3
:101DEC0080B487B000AF786039607B681B6A23F4DD
:101DFC0080527B681A627B681B6A3B617B685B68FC
:101E0C007B617B68DB69FB60FB6823F4E043FB6070
:101E1C00FB6823F44073FB603B681B681B02FA6889
:101E2C001343FB603B6923F400533B613B689B68A5
:101E3C001B033A6913433B617B680F4A934209D1F8
:101E4C007B6923F480437B613B685B699B017A6906
:101E5C0013437B617B687A695A607B68FA68DA6144
:101E6C003B685A687B681A647B683A691A6200BFDF
:101E7C001C37BD4680BC7047002C014080B487B035
:101E8C0000AFF860B9607A60BB6803F01F030122F1
:101E9C0002FA03F37B61FB681A6A7B69DB431A4025
:101EAC00FB681A62FB681A6ABB6803F01F03796847
:101EBC0001FA03F31A43FB681A6200BF1C37BD46D4
:101ECC0080BC704780B485B000AF786039607B68A7
:101EDC0093F83C30012B01D1022341E07B680122B5
:101EEC0083F83C207B68022283F83D207B681B68CA
:101EFC005B68FB607B681B689B68BB60FB6823F0BE
:101F0C007003FB603B681B68FA681343FB607B68DB
:101F1C001B68FA685A607B681B68144A934209D0A4
:101F2C007B681B68B3F1804F04D07B681B68104A38
:101F3C0093420CD1BB6823F08003BB603B685B68A9
:101F4C00BA681343BB607B681B68BA689A607B688D
:101F5C00012283F83D207B68002283F83C2000237B
:101F6C0018461437BD4680BC704700BF002C01409A
:101F7C000004004080B485B000AF78603960002365
:101F8C00FB607B6893F83C30012B01D102233DE0D0
:101F9C007B68012283F83C20FB6823F0FF023B683E
:101FAC00DB681343FB60FB6823F440723B689B685F
:101FBC001343FB60FB6823F480623B685B6813434C
:101FCC00FB60FB6823F400623B681B681343FB60F7
:101FDC00FB6823F480523B681B691343FB60FB686E
:101FEC0023F400523B685B691343FB60FB6823F4EA
:101FFC0080423B68DB691343FB607B681B68FA68B3
:10200C005A647B68002283F83C200023184614375E
:10201C00BD4680BC704780B582B000AF78607B68ED
:10202C00002B01D101233FE07B6893F83D30DBB2FC
:10203C00002B06D17B68002283F83C207868FEF7E1
:10204C00D9FA7B68242283F83D207B681B68DA6808
:10205C007B681B6822F40052DA60786800F02CFC74
:10206C007B681B681A697B681B6822F490421A61B2
:10207C007B681B685A697B681B6822F02A025A61CC
:10208C007B681B68DA687B681B6842F40052DA6074
:10209C007B6800221A647B68202283F83D207B68D1
:1020AC00202283F83E20002318460837BD4680BD09
:1020BC0080B58AB002AFF860B9603B601346FB8014
:1020CC0000237B61FB6893F83E30DBB2202B40F0A1
:1020DC008C80BB68002B02D0FB88002B01D1012324
:1020EC0084E0FB6893F83C30012B01D102237DE0A6
:1020FC00FB68012283F83C20FB6800221A64FB6811
:10210C00222283F83E20FB6800221A63FEF77AFB3A
:10211C007861FB68FA889A85FB68FA88DA85FB682F
:10212C009B68B3F5805F08D1FB681B69002B04D159
:10213C000023FB61BB68BB6103E0BB68FB61002350
:10214C00BB61FB68002283F83C2043E03B680093B2
:10215C007B6900222021F86800F013FA0346002B5B
:10216C0001D0032342E0FB69002B0CD1FB681B68F8
:10217C005B689BB2C3F308039AB2BB691A80BB6954
:10218C000233BB611FE0FB689B68B3F5805F07D02F
:10219C00FB689B68002B0AD1FB681B69002B06D1DE
:1021AC00FB681B685B68DAB2FB691A7008E0FB68B5
:1021BC001B685B68DBB203F07F03DAB2FB691A7051
:1021CC00FB690133FB61FB68DB8D9BB2013B9AB26F
:1021DC00FB68DA85FB68DB8D9BB2002BB6D1FB6804
:1021EC00202283F83E20002300E0022318462037EB
:1021FC00BD4680BD80B58AB000AF78607B681B6837
:10220C001B687B627B681B68DB683B627B681B68B6
:10221C005B69FB610023BB6100237B617B6A03F07C
:10222C000F03BB61BB69002B0DD17B6A03F020034C
:10223C00002B08D03B6A03F02003002B03D07868F6
:10224C0000F090FA7BE1BB69002B00F0B180FB69D8
:10225C0003F00103002B05D13B6A03F49073002BB0
:10226C0000F0A6807B6A03F00103002B0AD03B6AC6
:10227C0003F48073002B05D07B681B6C43F00102C8
:10228C007B681A647B6A03F00403002B0AD0FB6999
:10229C0003F00103002B05D07B681B6C43F002029A
:1022AC007B681A647B6A03F00203002B0AD0FB697B
:1022BC0003F00103002B05D07B681B6C43F0040278
:1022CC007B681A647B6A03F00803002B0FD03B6A0F
:1022DC0003F02003002B04D1FB6903F00103002B56
:1022EC0005D07B681B6C43F008027B681A647B6822
:1022FC001B6C002B00F01E817B6A03F02003002B6B
:10230C0007D03B6A03F02003002B02D0786800F062
:10231C0029FA7B681B685B6903F04003002B14BF30
:10232C0001230023DBB27B617B681B6C03F0080389
:10233C00002B02D17B69002B31D0786800F06BF94F
:10234C007B681B685B6903F04003002B23D07B6820
:10235C001B685A697B681B6822F040025A617B68D3
:10236C009B6B002B13D07B689B6B764A5A637B6804
:10237C009B6B1846FEF7BCFB0346002B16D07B6804
:10238C009B6B5B6B7A68926B104698470EE0786893
:10239C0000F0E3F80AE0786800F0DFF806E078680F
:1023AC0000F0DBF87B6800221A64C3E000BFC1E0D8
:1023BC007B681B6B012B40F0A1807B6A03F0100340
:1023CC00002B00F09B803B6A03F01003002B00F005
:1023DC0095800023FB607B681B681B68FB607B6837
:1023EC001B685B68FB60FB687B681B685B6903F0C0
:1023FC004003002B4ED07B689B6B1B685B683B8259
:10240C003B8A002B00F098807B689B8D3A8A9A421D
:10241C0080F092807B683A8ADA857B689B6B9B693B
:10242C00202B2BD07B681B68DA687B681B6822F436
:10243C008072DA607B681B685A697B681B6822F0C3
:10244C0001025A617B681B685A697B681B6822F021
:10245C0040025A617B68202283F83E207B68002270
:10246C001A637B681B68DA687B681B6822F01002B1
:10247C00DA607B689B6B1846FEF7FFFA7B689A8DD7
:10248C007B68DB8D9BB2D31A9BB21946786800F03F
:10249C006DF851E07B689A8D7B68DB8D9BB2D31A0B
:1024AC007B827B68DB8D9BB2002B47D07B8A002B19
:1024BC0044D07B681B68DA687B681B6822F49072D6
:1024CC00DA607B681B685A697B681B6822F0010222
:1024DC005A617B68202283F83E207B6800221A63B5
:1024EC007B681B68DA687B681B6822F01002DA6074
:1024FC007B8A1946786800F039F81FE07B6A03F094
:10250C008003002B08D03B6A03F08003002B03D020
:10251C00786800F0C0F812E07B6A03F04003002BEF
:10252C000DD03B6A03F04003002B08D0786800F014
:10253C0001F904E000BF02E000BF00E000BF283753
:10254C00BD4680BD7B26000880B483B000AF7860A8
:10255C0000BF0C37BD4680BC704780B483B000AF61
:10256C00786000BF0C37BD4680BC704780B483B028
:10257C0000AF78600B467B8000BF0C37BD4680BC3B
:10258C00704780B584B000AFF860B9603B6013460B
:10259C00FB712CE0BB69B3F1FF3F28D0BB69002B6A
:1025AC0007D0FEF72FF902463B68D31ABA699A4254
:1025BC001DD2FB681B68DA68FB681B6822F4D072BA
:1025CC00DA60FB681B685A69FB681B6822F0010221
:1025DC005A61FB68202283F83D20FB68202283F897
:1025EC003E20FB68002283F83C2003230FE0FB68AD
:1025FC001B681A68BB681340BA689A420CBF012367
:10260C000023DBB21A46FB799A42C3D0002318464A
:10261C001037BD4680BD80B483B000AF78607B6856
:10262C001B68DA687B681B6822F49072DA607B683E
:10263C001B685A697B681B6822F001025A617B682F
:10264C001B6B012B07D17B681B68DA687B681B68E6
:10265C0022F01002DA607B68202283F83E207B682F
:10266C0000221A6300BF0C37BD4680BC704780B592
:10267C0084B000AF78607B685B6AFB60FB6800220B
:10268C00DA85FB680022DA84F868FFF766FF00BF82
:10269C001037BD4680BD80B485B000AF78607B68D4
:1026AC0093F83D30DBB2212B3ED17B689B68B3F5B0
:1026BC00805F14D17B681B69002B10D17B681B6A6F
:1026CC00FB60FB681B881A467B681B68C2F3080218
:1026DC005A607B681B6A9A1C7B681A6208E07B68EC
:1026EC001B6A591C7A6811621A787B681B685A60DD
:1026FC007B68DB8C9BB2013B9BB27A681946D18418
:10270C00002B0FD17B681B68DA687B681B6822F092
:10271C008002DA607B681B68DA687B681B6842F0B1
:10272C004002DA60002300E0022318461437BD464D
:10273C0080BC704780B582B000AF78607B681B6846
:10274C00DA687B681B6822F04002DA607B68202222
:10275C0083F83D207868FFF7F7FE0023184608370A
:10276C00BD4680BD80B586B000AF78607B6893F8BD
:10277C003E30DBB2222B40F099807B689B68B3F52E
:10278C00805F17D17B681B69002B13D100237B6101
:10279C007B689B6A3B617B681B685B689BB2C3F37D
:1027AC0008039AB23B691A807B689B6A9A1C7B6807
:1027BC009A6226E07B689B6A7B6100233B617B68A5
:1027CC009B68B3F5805F07D07B689B68002B0AD1B0
:1027DC007B681B69002B06D17B681B685B68DAB2CF
:1027EC007B691A7008E07B681B685B68DBB203F0DE
:1027FC007F03DAB27B691A707B689B6A5A1C7B6810
:10280C009A627B68DB8D9BB2013B9BB27A6819465E
:10281C00D185002B48D17B681B68DA687B681B6804
:10282C0022F02002DA607B681B68DA687B681B6820
:10283C0022F48072DA607B681B685A697B681B68BB
:10284C0022F001025A617B68202283F83E207B68CB
:10285C001B6B012B23D17B6800221A637B681B68DE
:10286C00DA687B681B6822F01002DA607B681B68F0
:10287C001B6803F01003102B0AD10023FB607B684C
:10288C001B681B68FB607B681B685B68FB60FB68F4
:10289C007B689B8D19467868FFF768FE02E07868C4
:1028AC00FDF74EFC002302E0002300E00223184653
:1028BC001837BD4680BD000080B584B000AF78608D
:1028CC007B681B681B6923F440517B68DA687B6862
:1028DC001B680A431A617B689A687B681B691A43F8
:1028EC007B685B691343BB607B681B68DB6823F404
:1028FC00B05323F00C037A681268B9680B43D360A9
:10290C007B681B685B6923F440717B689A697B6800
:10291C001B680A435A617B681B682C4A934203D19B
:10292C00FEF7F0FEF86002E0FEF7D8FEF860FA68F9
:10293C0013469B0013449A001A447B685B689B0007
:10294C00B2FBF3F3224AA2FB03235B091901FA68D9
:10295C0013469B0013449A001A447B685B689B00E7
:10296C00B2FBF3F21A4BA3FB02035B09642000FBDE
:10297C0003F3D31A1B013233154AA2FB03235B0961
:10298C0003F0F0031944FA6813469B0013449A00B1
:10299C001A447B685B689B00B2FBF3F20C4BA3FB05
:1029AC0002035B09642000FB03F3D31A1B013233CF
:1029BC00074AA2FB03235B0903F00F027B681B6829
:1029CC000A449A6000BF1037BD4680BD00380140F4
:1029DC001F85EB5170B500260C4D0D4C641BA410DB
:1029EC00A64209D100F022F800260A4D0A4C641BBD
:1029FC00A410A64205D170BD55F8043B984701368A
:102A0C00EEE755F8043B98470136F2E7782A0008C0
:102A1C00782A0008782A00087C2A00080346024419
:102A2C00934200D1704703F8011BF9E7F8B500BFDA
:102A3C00F8BC08BC9E467047F8B500BFF8BC08BC93
:042A4C009E467047EB
:102A500002030405060708090A0B0C0D0E0F1010DF
:102A6000000000000000000001020304060708093E
:082A7000000000000102030454
:042A78003101000820
:042A7C000D01000840
:0C2A80000024F400100000000100000021
:0400000508000715D3
:00000001FF
